{
  "contractName": "CertificateChain",
  "abi": [
    {
      "anonymous": false,
      "inputs": [
        {
          "indexed": false,
          "internalType": "string",
          "name": "candidateHash",
          "type": "string"
        },
        {
          "indexed": false,
          "internalType": "address",
          "name": "issuer",
          "type": "address"
        }
      ],
      "name": "CertificateAdded",
      "type": "event"
    },
    {
      "inputs": [
        {
          "internalType": "string",
          "name": "",
          "type": "string"
        }
      ],
      "name": "certificates",
      "outputs": [
        {
          "internalType": "string",
          "name": "candidateHash",
          "type": "string"
        },
        {
          "internalType": "uint256",
          "name": "timestamp",
          "type": "uint256"
        },
        {
          "internalType": "address",
          "name": "issuer",
          "type": "address"
        }
      ],
      "stateMutability": "view",
      "type": "function"
    },
    {
      "inputs": [
        {
          "internalType": "string",
          "name": "_candidateHash",
          "type": "string"
        }
      ],
      "name": "addCertificate",
      "outputs": [],
      "stateMutability": "nonpayable",
      "type": "function"
    },
    {
      "inputs": [
        {
          "internalType": "string[]",
          "name": "_candidateHashes",
          "type": "string[]"
        }
      ],
      "name": "addBatch",
      "outputs": [],
      "stateMutability": "nonpayable",
      "type": "function"
    },
    {
      "inputs": [
        {
          "internalType": "string",
          "name": "_candidateHash",
          "type": "string"
        }
      ],
      "name": "verifyCertificate",
      "outputs": [
        {
          "internalType": "bool",
          "name": "",
          "type": "bool"
        },
        {
          "internalType": "uint256",
          "name": "",
          "type": "uint256"
        },
        {
          "internalType": "address",
          "name": "",
          "type": "address"
        }
      ],
      "stateMutability": "view",
      "type": "function"
    }
  ],
  "bytecode": "0x608060405234801561000f575f80fd5b50610ea28061001d5f395ff3fe608060405234801561000f575f80fd5b506004361061004a575f3560e01c80630a99e4f81461004e578063531285b91461006a5780638b23d875146100865780638f2b91ea146100b8575b5f80fd5b61006860048036038101906100639190610750565b6100ea565b005b610084600480360381019061007f9190610879565b610248565b005b6100a0600480360381019061009b9190610750565b6103aa565b6040516100af93929190610931565b60405180910390f35b6100d260048036038101906100cd9190610750565b610521565b6040516100e1939291906109e0565b60405180910390f35b5f80826040516100fa9190610a56565b90815260200160405180910390205f01805461011590610a99565b905014610157576040517f08c379a000000000000000000000000000000000000000000000000000000000815260040161014e90610b13565b60405180910390fd5b60405180606001604052808281526020014281526020013373ffffffffffffffffffffffffffffffffffffffff168152505f826040516101979190610a56565b90815260200160405180910390205f820151815f0190816101b89190610cce565b50602082015181600101556040820151816002015f6101000a81548173ffffffffffffffffffffffffffffffffffffffff021916908373ffffffffffffffffffffffffffffffffffffffff1602179055509050507f6dae487072a0ae0f2473b3117e73cde4322a2d1201b97a8aa6e0c73e6adf6dfc813360405161023d929190610d9d565b60405180910390a150565b5f5b81518110156103a6575f82828151811061026757610266610dcb565b5b602002602001015190505f80826040516102819190610a56565b90815260200160405180910390205f01805461029c90610a99565b9050036103925760405180606001604052808281526020014281526020013373ffffffffffffffffffffffffffffffffffffffff168152505f826040516102e39190610a56565b90815260200160405180910390205f820151815f0190816103049190610cce565b50602082015181600101556040820151816002015f6101000a81548173ffffffffffffffffffffffffffffffffffffffff021916908373ffffffffffffffffffffffffffffffffffffffff1602179055509050507f6dae487072a0ae0f2473b3117e73cde4322a2d1201b97a8aa6e0c73e6adf6dfc8133604051610389929190610d9d565b60405180910390a15b50808061039e90610e25565b91505061024a565b5050565b5f805f805f856040516103bd9190610a56565b90815260200160405180910390205f0180546103d890610a99565b9050036103ed575f805f92509250925061051a565b5f80856040516103fd9190610a56565b90815260200160405180910390206040518060600160405290815f8201805461042590610a99565b80601f016020809104026020016040519081016040528092919081815260200182805461045190610a99565b801561049c5780601f106104735761010080835404028352916020019161049c565b820191905f5260205f20905b81548152906001019060200180831161047f57829003601f168201915b5050505050815260200160018201548152602001600282015f9054906101000a900473ffffffffffffffffffffffffffffffffffffffff1673ffffffffffffffffffffffffffffffffffffffff1673ffffffffffffffffffffffffffffffffffffffff16815250509050600181602001518260400151935093509350505b9193909250565b5f818051602081018201805184825260208301602085012081835280955050505050505f91509050805f01805461055790610a99565b80601f016020809104026020016040519081016040528092919081815260200182805461058390610a99565b80156105ce5780601f106105a5576101008083540402835291602001916105ce565b820191905f5260205f20905b8154815290600101906020018083116105b157829003601f168201915b505050505090806001015490806002015f9054906101000a900473ffffffffffffffffffffffffffffffffffffffff16905083565b5f604051905090565b5f80fd5b5f80fd5b5f80fd5b5f80fd5b5f601f19601f8301169050919050565b7f4e487b71000000000000000000000000000000000000000000000000000000005f52604160045260245ffd5b6106628261061c565b810181811067ffffffffffffffff821117156106815761068061062c565b5b80604052505050565b5f610693610603565b905061069f8282610659565b919050565b5f67ffffffffffffffff8211156106be576106bd61062c565b5b6106c78261061c565b9050602081019050919050565b828183375f83830152505050565b5f6106f46106ef846106a4565b61068a565b9050828152602081018484840111156107105761070f610618565b5b61071b8482856106d4565b509392505050565b5f82601f83011261073757610736610614565b5b81356107478482602086016106e2565b91505092915050565b5f602082840312156107655761076461060c565b5b5f82013567ffffffffffffffff81111561078257610781610610565b5b61078e84828501610723565b91505092915050565b5f67ffffffffffffffff8211156107b1576107b061062c565b5b602082029050602081019050919050565b5f80fd5b5f6107d86107d384610797565b61068a565b905080838252602082019050602084028301858111156107fb576107fa6107c2565b5b835b8181101561084257803567ffffffffffffffff8111156108205761081f610614565b5b80860161082d8982610723565b855260208501945050506020810190506107fd565b5050509392505050565b5f82601f8301126108605761085f610614565b5b81356108708482602086016107c6565b91505092915050565b5f6020828403121561088e5761088d61060c565b5b5f82013567ffffffffffffffff8111156108ab576108aa610610565b5b6108b78482850161084c565b91505092915050565b5f8115159050919050565b6108d4816108c0565b82525050565b5f819050919050565b6108ec816108da565b82525050565b5f73ffffffffffffffffffffffffffffffffffffffff82169050919050565b5f61091b826108f2565b9050919050565b61092b81610911565b82525050565b5f6060820190506109445f8301866108cb565b61095160208301856108e3565b61095e6040830184610922565b949350505050565b5f81519050919050565b5f82825260208201905092915050565b5f5b8381101561099d578082015181840152602081019050610982565b5f8484015250505050565b5f6109b282610966565b6109bc8185610970565b93506109cc818560208601610980565b6109d58161061c565b840191505092915050565b5f6060820190508181035f8301526109f881866109a8565b9050610a0760208301856108e3565b610a146040830184610922565b949350505050565b5f81905092915050565b5f610a3082610966565b610a3a8185610a1c565b9350610a4a818560208601610980565b80840191505092915050565b5f610a618284610a26565b915081905092915050565b7f4e487b71000000000000000000000000000000000000000000000000000000005f52602260045260245ffd5b5f6002820490506001821680610ab057607f821691505b602082108103610ac357610ac2610a6c565b5b50919050565b7f416c7265616479206578697374732100000000000000000000000000000000005f82015250565b5f610afd600f83610970565b9150610b0882610ac9565b602082019050919050565b5f6020820190508181035f830152610b2a81610af1565b9050919050565b5f819050815f5260205f209050919050565b5f6020601f8301049050919050565b5f82821b905092915050565b5f60088302610b8d7fffffffffffffffffffffffffffffffffffffffffffffffffffffffffffffffff82610b52565b610b978683610b52565b95508019841693508086168417925050509392505050565b5f819050919050565b5f610bd2610bcd610bc8846108da565b610baf565b6108da565b9050919050565b5f819050919050565b610beb83610bb8565b610bff610bf782610bd9565b848454610b5e565b825550505050565b5f90565b610c13610c07565b610c1e818484610be2565b505050565b5b81811015610c4157610c365f82610c0b565b600181019050610c24565b5050565b601f821115610c8657610c5781610b31565b610c6084610b43565b81016020851015610c6f578190505b610c83610c7b85610b43565b830182610c23565b50505b505050565b5f82821c905092915050565b5f610ca65f1984600802610c8b565b1980831691505092915050565b5f610cbe8383610c97565b9150826002028217905092915050565b610cd782610966565b67ffffffffffffffff811115610cf057610cef61062c565b5b610cfa8254610a99565b610d05828285610c45565b5f60209050601f831160018114610d36575f8415610d24578287015190505b610d2e8582610cb3565b865550610d95565b601f198416610d4486610b31565b5f5b82811015610d6b57848901518255600182019150602085019450602081019050610d46565b86831015610d885784890151610d84601f891682610c97565b8355505b6001600288020188555050505b505050505050565b5f6040820190508181035f830152610db581856109a8565b9050610dc46020830184610922565b9392505050565b7f4e487b71000000000000000000000000000000000000000000000000000000005f52603260045260245ffd5b7f4e487b71000000000000000000000000000000000000000000000000000000005f52601160045260245ffd5b5f610e2f826108da565b91507fffffffffffffffffffffffffffffffffffffffffffffffffffffffffffffffff8203610e6157610e60610df8565b5b60018201905091905056fea264697066735822122041b8e9675b0ee18d347f6a489752acdcfa661fb56014ea2edf38bd53adad8b4864736f6c63430008140033",
  "immutableReferences": {},
  "source": "// SPDX-License-Identifier: MIT\r\npragma solidity ^0.8.0;\r\n\r\ncontract CertificateChain {\r\n    struct Certificate {\r\n        string candidateHash;\r\n        uint timestamp;\r\n        address issuer;\r\n    }\r\n\r\n    mapping(string => Certificate) public certificates;\r\n\r\n    event CertificateAdded(string candidateHash, address issuer);\r\n\r\n    // Single insert\r\n    function addCertificate(string memory _candidateHash) public {\r\n        require(bytes(certificates[_candidateHash].candidateHash).length == 0, \"Already exists!\");\r\n        certificates[_candidateHash] = Certificate(_candidateHash, block.timestamp, msg.sender);\r\n        emit CertificateAdded(_candidateHash, msg.sender);\r\n    }\r\n\r\n    //  Batch insert\r\n    function addBatch(string[] memory _candidateHashes) public {\r\n        for (uint i = 0; i < _candidateHashes.length; i++) {\r\n            string memory hash = _candidateHashes[i];\r\n            if (bytes(certificates[hash].candidateHash).length == 0) {\r\n                certificates[hash] = Certificate(hash, block.timestamp, msg.sender);\r\n                emit CertificateAdded(hash, msg.sender);\r\n            }\r\n        }\r\n    }\r\n\r\n    // Verify certificate\r\n    function verifyCertificate(string memory _candidateHash) public view returns (bool, uint, address) {\r\n        if (bytes(certificates[_candidateHash].candidateHash).length == 0) {\r\n            return (false, 0, address(0));\r\n        }\r\n        Certificate memory cert = certificates[_candidateHash];\r\n        return (true, cert.timestamp, cert.issuer);\r\n    }\r\n}\r\n",
  "sourcePath": "C:\\Users\\Lenovo\\Documents\\sih_p01\\Prototype\\blockchain\\contracts\\CertificateChain.sol",
  "compiler": {
    "name": "solc",
    "version": "0.8.20+commit.a1b79de6.Emscripten.clang"
  },
  "schemaVersion": "3.4.16",
  "updatedAt": "2025-09-12T17:48:02.036Z",
  "devdoc": {
    "kind": "dev",
    "methods": {},
    "version": 1
  },
  "userdoc": {
    "kind": "user",
    "methods": {},
    "version": 1
  }
}