{
  "contractName": "CertificateChain",
  "abi": [
    {
      "anonymous": false,
      "inputs": [
        {
          "indexed": false,
          "internalType": "string",
          "name": "candidateHash",
          "type": "string"
        },
        {
          "indexed": false,
          "internalType": "address",
          "name": "issuer",
          "type": "address"
        }
      ],
      "name": "CertificateAdded",
      "type": "event"
    },
    {
      "inputs": [
        {
          "internalType": "string",
          "name": "",
          "type": "string"
        }
      ],
      "name": "certificates",
      "outputs": [
        {
          "internalType": "string",
          "name": "candidateHash",
          "type": "string"
        },
        {
          "internalType": "uint256",
          "name": "timestamp",
          "type": "uint256"
        },
        {
          "internalType": "address",
          "name": "issuer",
          "type": "address"
        }
      ],
      "stateMutability": "view",
      "type": "function",
      "constant": true
    },
    {
      "inputs": [
        {
          "internalType": "string",
          "name": "_candidateHash",
          "type": "string"
        }
      ],
      "name": "addCertificate",
      "outputs": [],
      "stateMutability": "nonpayable",
      "type": "function"
    },
    {
      "inputs": [
        {
          "internalType": "string[]",
          "name": "_candidateHashes",
          "type": "string[]"
        }
      ],
      "name": "addBatch",
      "outputs": [],
      "stateMutability": "nonpayable",
      "type": "function"
    },
    {
      "inputs": [
        {
          "internalType": "string",
          "name": "_candidateHash",
          "type": "string"
        }
      ],
      "name": "verifyCertificate",
      "outputs": [
        {
          "internalType": "bool",
          "name": "",
          "type": "bool"
        },
        {
          "internalType": "uint256",
          "name": "",
          "type": "uint256"
        },
        {
          "internalType": "address",
          "name": "",
          "type": "address"
        }
      ],
      "stateMutability": "view",
      "type": "function",
      "constant": true
    }
  ],
  "bytecode": "0x608060405234801561000f575f80fd5b506109218061001d5f395ff3fe608060405234801561000f575f80fd5b506004361061004a575f3560e01c80630a99e4f81461004e578063531285b9146100635780638b23d875146100765780638f2b91ea146100b4575b5f80fd5b61006161005c3660046105b7565b6100d6565b005b6100616100713660046105f1565b6101f6565b6100896100843660046105b7565b610316565b60408051931515845260208401929092526001600160a01b0316908201526060015b60405180910390f35b6100c76100c23660046105b7565b61044a565b6040516100ab939291906106fb565b5f816040516100e5919061072d565b90815260405190819003602001902080546100ff90610748565b1590506101445760405162461bcd60e51b815260206004820152600f60248201526e416c7265616479206578697374732160881b604482015260640160405180910390fd5b60408051606081018252828152426020820152338183015290515f9061016b90849061072d565b9081526040519081900360200190208151819061018890826107ce565b5060208201516001820155604091820151600290910180546001600160a01b0319166001600160a01b03909216919091179055517f6dae487072a0ae0f2473b3117e73cde4322a2d1201b97a8aa6e0c73e6adf6dfc906101eb908390339061088a565b60405180910390a150565b5f5b8151811015610312575f828281518110610214576102146108b3565b602002602001015190505f8160405161022d919061072d565b908152604051908190036020019020805461024790610748565b90505f036102ff5760408051606081018252828152426020820152338183015290515f9061027690849061072d565b9081526040519081900360200190208151819061029390826107ce565b5060208201516001820155604091820151600290910180546001600160a01b0319166001600160a01b03909216919091179055517f6dae487072a0ae0f2473b3117e73cde4322a2d1201b97a8aa6e0c73e6adf6dfc906102f6908390339061088a565b60405180910390a15b508061030a816108c7565b9150506101f8565b5050565b5f805f8084604051610328919061072d565b908152604051908190036020019020805461034290610748565b90505f0361035757505f915081905080610443565b5f8085604051610367919061072d565b90815260200160405180910390206040518060600160405290815f8201805461038f90610748565b80601f01602080910402602001604051908101604052809291908181526020018280546103bb90610748565b80156104065780601f106103dd57610100808354040283529160200191610406565b820191905f5260205f20905b8154815290600101906020018083116103e957829003601f168201915b50505091835250506001828101546020808401919091526002909301546001600160a01b0316604092830152918301519201519095509093509150505b9193909250565b80516020818301810180515f8252928201919093012091528054819061046f90610748565b80601f016020809104026020016040519081016040528092919081815260200182805461049b90610748565b80156104e65780601f106104bd576101008083540402835291602001916104e6565b820191905f5260205f20905b8154815290600101906020018083116104c957829003601f168201915b5050505060018301546002909301549192916001600160a01b0316905083565b634e487b7160e01b5f52604160045260245ffd5b604051601f8201601f1916810167ffffffffffffffff8111828210171561054357610543610506565b604052919050565b5f82601f83011261055a575f80fd5b813567ffffffffffffffff81111561057457610574610506565b610587601f8201601f191660200161051a565b81815284602083860101111561059b575f80fd5b816020850160208301375f918101602001919091529392505050565b5f602082840312156105c7575f80fd5b813567ffffffffffffffff8111156105dd575f80fd5b6105e98482850161054b565b949350505050565b5f6020808385031215610602575f80fd5b823567ffffffffffffffff80821115610619575f80fd5b818501915085601f83011261062c575f80fd5b81358181111561063e5761063e610506565b8060051b61064d85820161051a565b9182528381018501918581019089841115610666575f80fd5b86860192505b838310156106a157823585811115610683575f8081fd5b6106918b89838a010161054b565b835250918601919086019061066c565b9998505050505050505050565b5f5b838110156106c85781810151838201526020016106b0565b50505f910152565b5f81518084526106e78160208601602086016106ae565b601f01601f19169290920160200192915050565b606081525f61070d60608301866106d0565b6020830194909452506001600160a01b0391909116604090910152919050565b5f825161073e8184602087016106ae565b9190910192915050565b600181811c9082168061075c57607f821691505b60208210810361077a57634e487b7160e01b5f52602260045260245ffd5b50919050565b601f8211156107c9575f81815260208120601f850160051c810160208610156107a65750805b601f850160051c820191505b818110156107c5578281556001016107b2565b5050505b505050565b815167ffffffffffffffff8111156107e8576107e8610506565b6107fc816107f68454610748565b84610780565b602080601f83116001811461082f575f84156108185750858301515b5f19600386901b1c1916600185901b1785556107c5565b5f85815260208120601f198616915b8281101561085d5788860151825594840194600190910190840161083e565b508582101561087a57878501515f19600388901b60f8161c191681555b5050505050600190811b01905550565b604081525f61089c60408301856106d0565b905060018060a01b03831660208301529392505050565b634e487b7160e01b5f52603260045260245ffd5b5f600182016108e457634e487b7160e01b5f52601160045260245ffd5b506001019056fea2646970667358221220e7b321fd45373c30610a16cd7b6aea6509cf932492039be08a16ce5d2cb7ab3164736f6c63430008140033",
  "immutableReferences": {},
  "source": "// SPDX-License-Identifier: MIT\r\npragma solidity ^0.8.0;\r\n\r\ncontract CertificateChain {\r\n    struct Certificate {\r\n        string candidateHash;\r\n        uint timestamp;\r\n        address issuer;\r\n    }\r\n\r\n    mapping(string => Certificate) public certificates;\r\n\r\n    event CertificateAdded(string candidateHash, address issuer);\r\n\r\n    // Single insert\r\n    function addCertificate(string memory _candidateHash) public {\r\n        require(bytes(certificates[_candidateHash].candidateHash).length == 0, \"Already exists!\");\r\n        certificates[_candidateHash] = Certificate(_candidateHash, block.timestamp, msg.sender);\r\n        emit CertificateAdded(_candidateHash, msg.sender);\r\n    }\r\n\r\n    //  Batch insert\r\n    function addBatch(string[] memory _candidateHashes) public {\r\n        for (uint i = 0; i < _candidateHashes.length; i++) {\r\n            string memory hash = _candidateHashes[i];\r\n            if (bytes(certificates[hash].candidateHash).length == 0) {\r\n                certificates[hash] = Certificate(hash, block.timestamp, msg.sender);\r\n                emit CertificateAdded(hash, msg.sender);\r\n            }\r\n        }\r\n    }\r\n\r\n    // Verify certificate\r\n    function verifyCertificate(string memory _candidateHash) public view returns (bool, uint, address) {\r\n        if (bytes(certificates[_candidateHash].candidateHash).length == 0) {\r\n            return (false, 0, address(0));\r\n        }\r\n        Certificate memory cert = certificates[_candidateHash];\r\n        return (true, cert.timestamp, cert.issuer);\r\n    }\r\n}\r\n",
  "sourcePath": "C:\\Users\\Mrunmayee Yawale\\Desktop\\SIH_experiments\\Working model\\contracts\\CertificateChain.sol",
  "compiler": {
    "name": "solc",
    "version": "0.8.20+commit.a1b79de6.Emscripten.clang"
  },
  "schemaVersion": "3.4.16",
  "updatedAt": "2025-09-11T16:19:16.823Z",
  "networkType": "ethereum",
  "devdoc": {
    "kind": "dev",
    "methods": {},
    "version": 1
  },
  "userdoc": {
    "kind": "user",
    "methods": {},
    "version": 1
  }
}